:020000040000FA
:10000000F0030010BD010000C5010000C7010000A1
:10001000C9010000CB010000CD010000000000007C
:10002000000000000000000000000000CF01000000
:10003000D101000000000000D3010000D501000044
:10004000D7010000A140000009410000D7010000D5
:10005000D7010000D7010000D7010000D701000040
:10006000D7010000D7010000D7010000D701000030
:10007000D7010000D7010000D7010000D701000020
:10008000D7010000D7010000D7010000D701000010
:10009000D7010000D7010000D7010000D701000000
:1000A000D7010000D7010000D7010000D7010000F0
:1000B000D7010000D7010000D7010000D7010000E0
:1000C000D7010000D7010000D701000000F002F8BE
:1000D00000F04AF80AA090E8000C82448344AAF198
:1000E0000107DA4501D100F03FF8AFF2090EBAE896
:1000F0000F0013F0010F18BFFB1A43F0010318475C
:1001000090740000B0740000103A24BF78C878C121
:10011000FAD8520724BF30C830C144BF04680C600D
:10012000704700000023002400250026103A28BF55
:1001300078C1FBD8520728BF30C148BF0B60704759
:10014000642904F03981002070471FB504F0E5FAF6
:1001500004F0C2FD04000020002105F0F7FF401C60
:1001600060601FBD10B510BD04F07EFD1146FFF7A5
:10017000ECFF02F051F904F0A5FD03B4FFF7F2FF24
:1001800003BC04F0ADFD00000B49D1F800C04A6883
:100190005CF8043B1068184442F8040B8C4528BFF7
:1001A000A1F1DC0C8A4228BFA1F1DC02C1F800C039
:1001B0004A6020F0004070478401001009488047E1
:1001C00009480047FEE7FEE7FEE7FEE7FEE7FEE739
:1001D000FEE7FEE7FEE7FEE704480549034A054B54
:1001E000704700002D040000CD000000F001001059
:1001F000F0030010F0010010F0B504460B46154660
:10020000194660003B4A102901D31039401C52F8AE
:1002100020604FEA410C032707FA0CF7BE4342F86F
:10022000206052F820604F0005FA07F73E4342F87D
:100230002060F0BDF0B504460B4615461946600037
:100240002C4A4032102901D31039401C52F820604A
:100250004FEA410C032707FA0CF7BE4342F820602F
:1002600052F820604F0005FA07F73E4342F820603D
:10027000F0BD30B50B461F496831012A07D151F84E
:10028000204001259D402C4341F8204006E051F8D4
:10029000204001259D40AC4341F8204030BD01285D
:1002A00006D11449896A41F00801124A916206E0B8
:1002B00028B91049896A21F008010E4A91627047F5
:1002C000012800D1052201B90A220A4BDA677047DA
:1002D00010B50446A27861782078FFF78DFFE278A8
:1002E00061782078FFF7A6FF227961782078FFF700
:1002F000C0FF10BD00C0024070470000FFFFFFFFBD
:1003000097480068C0F3016003285DD194488430A9
:10031000006800F0030030B1012820D0022839D055
:10032000032850D100E000BF8D480068C0F30E00E4
:10033000401C40008B49484389498839D1F88810CE
:10034000C1F30741491CB0FBF1F185487C300068DE
:10035000C0B2401CB1FBF0F08349086033E0804834
:100360000068C0F30E00401C4000804948437C49AF
:100370008839D1F88810C1F30741491CB0FBF1F16D
:1003800077487C300068C0B2401CB1FBF0F0764981
:10039000086018E072480068C0F30E00401C0104B9
:1003A0006F488838D0F88800C0F30740401CB1FB84
:1003B000F0F16B487C300068C0B2401CB1FBF0F03B
:1003C0006949086000BF30E065488430006800F08B
:1003D000030030B1012810D0022819D0032823D1FE
:1003E00000E000BF5E487C300068C0B2401C5D4940
:1003F000B1FBF0F05C49086016E059487C300068B9
:10040000C0B2401C5949B1FBF0F0574908600BE0FD
:1004100053487C300068C0B2401C4FF40041B1FB2F
:10042000F0F05149086000BF00BF704720205049DC
:1004300008604B488838D0F8A00100F0200030B1A7
:1004400000BF4B48006800F040000028F9D00320AE
:1004500043497C310860002041498839C1F8A8012E
:1004600043490C31086001203D498431086041480E
:100470003B49091F0860AA203949091D0860552019
:1004800008600120364908390860AA203449091D4E
:100490000860552032498839C1F88C0000BF3048C7
:1004A000006800F080600028F9D003202C4908394A
:1004B0000860AA202A498839C1F88C0055202849AB
:1004C000091D086000BF2648006800F04070002841
:1004D000F9D0232022491C310860AA2020498839FC
:1004E000C1F8AC0055201E492431086001201C4988
:1004F00018310860AA201A4924310860552018498B
:100500008839C1F8AC0000BF15482030006800F4FD
:1005100080600028F8D00320114918310860AA2013
:100520000F498839C1F8AC0055200D4924310860C5
:1005300000BF0B482030006800F440700028F8D05D
:100540000D4807493C310860002005498839C1F849
:10055000C80143F23A00086000200849086070476B
:1005600088C00F4000093D0000000010001BB700CC
:10057000A0C10F4063000500DE87280408ED00E0FD
:1005800010B50A46202801D2034601E0A0F120035D
:100590001946202810D2454B1B6803248C40A343E6
:1005A000434CC4F8A831414B1B6802FA01F42343C1
:1005B0003F4CC4F8A83111E03C4B1B1D1B680324C1
:1005C0008C40A3433A4CC4F8AC31384B1B1D1B681C
:1005D00002FA01F42343364CC4F8AC3110BD014695
:1005E000202903D20A46314B186804E0A1F1200209
:1005F0002E4B1B1D186820FA02F303F0030070470E
:1006000070B506462B4804683046FFF7E8FF0546FC
:1006100035B1012D06D0022D06D0032D08D105E0FD
:10062000042505E0012503E0022501E0082500BFBF
:1006300000BFB4FBF5F4204670BD012909D11C4A66
:10064000C43212681C4B03401A43194BC3F8C42030
:1006500009E041B9164AC4321268174B83431A4065
:10066000134BC3F8C420704700201149C031086003
:1006700030BF704704201149086008200C49C03180
:10068000086030BF704704200C4908600920084901
:10069000C031086030BF704704200849086003205B
:1006A0000349C031086030BF70470000A8C10F4047
:1006B00000C00F4000000010DEF7EFEF10ED00E08B
:1006C00001460020052912D2DFE801F00305080BDE
:1006D0000E00FB480CE0FA48203009E0F8484030B2
:1006E00006E0F748603003E0F548803000E000BFE6
:1006F00000BF704701460020052912D2DFE801F053
:100700000305080B0E00EE480CE0ED48203009E030
:10071000EB48403006E0EA48603003E0E8488030CB
:1007200000E000BF00BF704701460020052912D23B
:10073000DFE801F00305080B0E00E1480CE0E0489B
:10074000203009E0DE48403006E0DD48603003E05C
:10075000DB48803000E000BF00BF70472DE9F0416A
:1007600007460D4616463846FFF7AAFF04463CB139
:100770001EB120682843206002E02068A843206062
:10078000BDE8F08170B506460C463046FFF798FF8D
:10079000054605B1AC6170BD70B506460C463046E5
:1007A000FFF78EFF054605B1EC6170BD70B50546DB
:1007B0002846FFF785FF04460CB1606970BD002034
:1007C000FCE718B912B9BF4B196017E0022804D131
:1007D0001AB9BC4B2033196010E028B9012A03D1A3
:1007E000B84B1B1D196009E0022805D1012A03D16D
:1007F000B44B2433196001E000BFFEE770470346A5
:100800003BB932B9AF480C380068C84000F001006D
:100810007047022B07D132B9AA4814300068C8408B
:1008200000F00100F4E743B9012A06D1A5480838D1
:100830000068C84000F00100EAE7022B08D1012A55
:1008400006D1A04818300068C84000F00100DFE77A
:1008500000BFFEE718B99B4A121F116007E002288B
:1008600003D1984A1C32116001E000BFFEE77047D7
:1008700070B504460D461646324629462046FFF717
:100880006DFF70BD70B504460D4629462046FFF742
:1008900079FF70BD70B504460D4629462046FFF726
:1008A0007BFF70BD10B504462046FFF77FFF10BDEB
:1008B00070B504460D461646324629462046FFF7D7
:1008C00080FF70BD70B504460D4616463246294677
:1008D0002046FFF794FF70BD10B503460C46214635
:1008E0001846FFF7B7FF10BD2DE9F04107460D464A
:1008F00016463846FFF7E4FE04463CB11EB12069B7
:100900002843206102E02069A8432061BDE8F0810E
:100910002DE9F04180460E4615461F464046FFF73A
:10092000E9FE04468CB147B11EB16088284360805F
:100930000BE020882843208007E01EB16088A84390
:10094000608002E02088A8432080BDE8F0812DE986
:10095000F04180460E4615461F464046FFF7CAFE48
:1009600004468CB147B11EB1608A284360820BE017
:10097000208A2843208207E01EB1608AA843608253
:1009800002E0208AA8432082BDE8F0812DE9F041F1
:1009900007460E4614463846FFF7ACFE05461DB125
:1009A0000EB16C8300E02C83BDE8F0812DE9F041AD
:1009B00007460E4614463846FFF79CFE05461DB115
:1009C0000EB1EC8300E0AC83BDE8F08170B5064663
:1009D0000D463046FFF78EFE044624B10DB1E08A85
:1009E00070BDA08AFCE70020FAE72DE9F0418046BF
:1009F0000C4616461F464046FFF796FE05465DB17B
:100A00002FB1032C08DC285D3043285504E0032C6B
:100A100002DC285DB0432855BDE8F0812DE9F041A6
:100A200080460C4616461F464046FFF77DFE0546AB
:100A30009DB14FB1032C10DC05F11000005D304377
:100A400005F11001085508E0032C06DC05F1100043
:100A5000005DB04305F110010855BDE8F0812DE9B6
:100A6000F04107460C4615463846FFF75DFE064640
:100A700026B1032C02DC06F118000555BDE8F08113
:100A80002DE9F04107460C4615463846FFF74CFE67
:100A9000064626B1032C02DC06F11C000555BDE814
:100AA000F08170B506460C463046FFF73DFE054620
:100AB00055B1032C08DC05F11400005D70BD000089
:100AC00000C00920908002400020F7E770B505467D
:100AD00035B1012D09D0022D0CD0032D14D10EE01B
:100AE0000220FFF78DFD04460EE00420FFF788FD8D
:100AF000044609E02C20FFF783FD044604E02E2085
:100B0000FFF77EFD044600BF00BF204670BD2DE903
:100B1000F04781460C464846FFF7D8FF00260546B9
:100B200000232946A1FB047C06FB04C205FB03212C
:100B3000FB4A384603F072FB05462846BDE8F087BD
:100B400001464FF0FF30B1F1402F01D100200DE000
:100B5000F44A914201D1012008E0F34A914201D1C7
:100B6000022003E0F14A914200D10320704770B5A2
:100B700005460C46B5F1402F08D0EA48854205D01D
:100B8000E948854202D0E948854200D103E0A62128
:100B9000E7A001F079FC4CB1012C07D0022C05D064
:100BA000032C03D0042C01D0052C00D103E0A72195
:100BB000DFA001F069FC28680121A1400840C6B20D
:100BC0000EB1012070BD0020FCE770B505460C4653
:100BD000B5F1402F08D0D348854205D0D248854290
:100BE00002D0D248854200D103E0C421D0A001F058
:100BF0004BFC4CB1012C07D0022C05D0032C03D0A8
:100C0000042C01D0052C00D103E0C521C8A001F0BF
:100C10003BFC2868211D01228A401040C6B20EB15B
:100C2000012070BD0020FCE770B505460C46B5F10B
:100C3000402F08D0BB48854205D0BB48854202D032
:100C4000BA48854200D103E0DD21B9A001F01CFCC7
:100C50004CB1012C07D0022C05D0032C03D0042C5E
:100C600001D0052C00D103E0DE21B1A001F00CFC85
:100C70000120A040286070BD70B505460C46B5F156
:100C8000402F08D0A748854205D0A748854202D00A
:100C9000A648854200D103E0F421A5A001F0F4FBB1
:100CA0004CB1012C07D0022C05D0032C03D0042C0E
:100CB00001D0052C00D103E0F5219DA001F0E4FB5B
:100CC000201D01218140296070BD20B90A46012301
:100CD0001370536003E00A460023537000BF70474F
:100CE0002DE9F04704460D461646B4F1402F08D0D2
:100CF0008C48844205D08C48844202D08B48844280
:100D000000D104E040F22B1189A001F0BDFB1DB120
:100D1000012D01D000D000D104E04FF4967184A0E1
:100D200001F0B2FBB4F1402F08D101210220FFF7FE
:100D300084FC00210220FFF723FC22E07948844252
:100D400008D101210420FFF778FC00210420FFF7DF
:100D500017FC16E07448844208D101218805FFF78A
:100D60006CFC00212C20FFF70BFC0AE06F4884424A
:100D700007D10121C805FFF760FC00212E20FFF7F5
:100D8000FFFBA06A20F00300A062A06AA06200201E
:100D9000A0602061E060606840F002006060606810
:100DA00020F00200606085B93746387818B9786855
:100DB000401EE06017E02046FFF7C2FE81467968DA
:100DC000FFF7A5FE401EE0600DE0B046A06A20F0EF
:100DD0000C00A062464698F80100012803D1A06AE1
:100DE00040F00400A0624FF0FF302060BDE8F087C3
:100DF00010B50446B4F1402F08D04A48844205D0CB
:100E00004948844202D04948844200D104E040F27B
:100E1000791147A001F038FB00206060B4F1402F49
:100E200004D100210220FFF708FC18E03D4884426D
:100E300004D100210420FFF700FC10E03A4884426E
:100E400005D100214FF48000FFF7F7FB07E037489A
:100E5000844204D100214FF48000FFF7EEFB10BD67
:100E600070B504460D46B4F1402F08D02D48844299
:100E700005D02D48844202D02C48844200D104E0A1
:100E80004FF4CD712AA001F0FFFA012D04D1606862
:100E900040F00100606003E0606820F001006060E5
:100EA00070BD10B50446B4F1402F08D01D488442EF
:100EB00005D01D48844202D01C48844200D104E081
:100EC0004FF4D9711AA001F0DFFA606840F0020017
:100ED0006060606820F00200606010BD70B504467C
:100EE0000D46B4F1402F08D00E48844205D00E487C
:100EF000844202D00D48844200D104E040F2D11176
:100F00000BA001F0C1FA287940B12879012805D059
:100F10002879022802D02879032829D12EE0000060
:100F200040420F000080004000000940004009409E
:100F30002E2E5C4C69627261726965735C4C435021
:100F4000313736385F5374645065726970685F4436
:100F500072697665725C736F757263655C6C7063E1
:100F6000313778785F74696D65722E630000000018
:100F70004FF4E971AFF2480001F086FA287830B1F9
:100F8000012807D0022808D003280CD108E0A8685F
:100F9000A0610AE0A868E06107E0A868206204E0B8
:100FA000A868606201E000BFFEE700BF60692978C1
:100FB00001EB41020721914088436061687838B1B4
:100FC0006069297801EB4102012191400843606189
:100FD000E87840B16069297801EB4101491C0122A0
:100FE0008A4010436061A87840B16069297801EBBC
:100FF0004101891C01228A4010436061E06B29781D
:10100000042202EB4102032191408843E0632879E6
:1010100000F003002978042202EB41018840E16BD3
:101020000843E06370BD70B504460E461546B4F142
:10103000402F08D04348844205D04348844202D020
:101040004248844200D105E040F20721AFF220106F
:1010500001F01AFA36B1012E06D0022E06D0032E68
:1010600008D105E0A56107E0E56105E0256203E040
:10107000656201E000BFFEE700BF70BD70B50446C9
:101080000D46B4F1402F08D02E48844205D02E489A
:10109000844202D02D48844200D105E040F22D2147
:1010A000AFF2741001F0F0F9A06A297801EB410267
:1010B000072191408843A062687838B1A06A2978F6
:1010C00001EB4102012191400843A062A87840B1A0
:1010D000A06A297801EB4101491C01228A40104392
:1010E000A062E87840B1A06A297801EB4101891C2F
:1010F00001228A401043A06270BD70B504460D46BF
:10110000B4F1402F08D00F48844205D00E488442E5
:1011100002D00E48844200D105E04FF41271AFF2C4
:10112000F01001F0B1F90DB1012D00D105E040F250
:101130004921AFF2042001F0A7F90DB9E06A70BDB2
:10114000206BFCE70080004000000940004009409F
:101150002DE9F04704468846F648844202D0F64816
:10116000844200D103E04321F4A001F08DF9F1485D
:10117000844204D12A20FFF743FA074609E0EE48EB
:10118000844204D11420FFF73BFA074601E0BDE892
:10119000F08700254FF0FF3902260AE0681C7043F3
:1011A000B7FBF0F9C14504D96D1CFF2D01D900250D
:1011B000B61CC145F2D82068C0B2206020684FF646
:1011C000FF7101EA052108432060F0B2206100BFF1
:1011D000DDE770B504460D46D648844202D0D648B5
:1011E000844200D103E08121D4A001F04DF9D1481F
:1011F000844204D101214805FFF71FFA08E0CE48D8
:10120000844204D101210015FFF717FA00E070BDF8
:10121000A88829890843298A08432988084386B26F
:101220002660287B00F00F06666020466969FFF79C
:101230008FFF00BFEBE710B50446BE48844202D0E2
:10124000BD48844200D103E0A821BCA001F01CF9F4
:10125000B848844205D100214FF40010FFF7EDF9A2
:1012600006E0B548844203D100210015FFF7E5F9F7
:1012700010BD10B50446AF48844202D0AE48844247
:1012800000D103E0C021ADA001F0FEF8206800F01D
:101290000F0010BD002141608160B7494161072105
:1012A00001600021C1600161704770B504460D46C0
:1012B000A048844202D0A048844200D103E0E52146
:1012C0009EA001F0E1F80DB1012D00D103E0E6216F
:1012D0009AA001F0D9F8012D04D1606840F0020015
:1012E000606003E0606800F00D00606070BD70B584
:1012F00004460D468F48844202D08F48844200D174
:1013000003E0FE218DA001F0BFF80DB1012D00D149
:1013100003E0FF2189A001F0B7F8012D04D1606836
:1013200040F00100606003E0606800F00E00606063
:1013300070BD70B504460D467E48844202D07E489A
:10134000844200D104E04FF48D717CA001F09CF840
:101350000DB1012D00D104E040F21B1177A001F086
:1013600093F8012D04D1606800F00700606003E08D
:10137000606840F00800606070BD70B504460D46BE
:101380006C48844202D06C48844200D104E04FF49F
:101390009A716AA001F078F8A8B2A06070BD10B58B
:1013A00004466448844202D06348844200D104E089
:1013B0004FF4A27161A001F067F8A06880B210BD7F
:1013C0002DE9F74F82B006460C460020E0606060D1
:1013D000606103E03046FFF7E2FF0746F06800F087
:1013E00004000028F6D1032030623046FFF741FFA9
:1013F000082801DD012500E00025049800287AD1A5
:1014000025B9D4F80890D4F800A003E0D4F808B0C7
:101410002068019060E0F06800F0020010B32169DC
:10142000606888422AD0206888B93DB9FF213046DB
:10143000FFF7A3FF6068401C60601FE04FF6FF717C
:101440003046FFF79AFF6068801C606016E055B96F
:101450009AF800103046FFF790FF0AF1010A606821
:10146000401C60600AE0019801883046FFF785FF64
:101470000198801C01906068801C6060D6F818801C
:1014800008F0010038B148F4007060614FF0FF309F
:1014900005B0BDE8F08F17E03046FFF780FF074644
:1014A000A06848B125B989F8007009F1010903E085
:1014B000ABF800700BF1020B1DB9E068401CE06056
:1014C00002E0E068801CE060F06800F0040018B101
:1014D000D4E903018842DFD12169606888429AD14A
:1014E000D4E90301884296D14FF48070606120688E
:1014F00010B16068CCE705E0A06808B1E068C7E714
:101500000020C5E7049801287ED176E02068A8BBBA
:101510003DB9FF213046FFF730FF6068401C606036
:1015200041E04FF6FF713046FFF727FF6068801CEF
:10153000606038E000800840000003402E2E5C4CC4
:1015400069627261726965735C4C43503137363839
:101550005F5374645065726970685F447269766540
:10156000725C736F757263655C6C70633137787829
:101570005F7373702E63000040420F00FFE74DB9A8
:10158000D4E90002815C3046FFF7F7FE6068401C3A
:10159000606008E0D4E90002815A3046FFF7EDFEB2
:1015A0006068801C6060D6F8188008F0010028B1DF
:1015B00048F4007060614FF0FF3069E715E0304695
:1015C000FFF7EDFE0746A06838B11DB9D4E9021255
:1015D0008F5402E0D4E902128F521DB9E068401C1A
:1015E000E06002E0E068801CE060F06800F0040069
:1015F00018B1D4E903018842E1D1F06800F002009B
:1016000030B12169606800E012E088427FF47EAF6B
:10161000D4E90301884203D121696068884202D07D
:101620000F20706102E04FF48070606100202FE7AE
:101630004FF0FF302CE770B505460C4676488542E2
:1016400002D07648854200D105E04FF40571AFF233
:10165000141000F019FF012C07D0022C05D0042C27
:1016600003D0082C01D0102C00D105E040F2152148
:10167000AFF2381000F008FFE868204008B1012000
:1016800070BD0020FCE770B504460D461646624862
:10169000844202D06148844200D105E04FF40B71CE
:1016A000AFF2681000F0F0FE012E03D1606928430C
:1016B000606104E060690F21A9430840606170BD6A
:1016C00070B505460C465448854202D053488542C1
:1016D00000D105E040F24921AFF2A01000F0D4FEA5
:1016E000012C05D0022C03D0042C01D0082C00D1F1
:1016F00005E040F24A21AFF2BC1000F0C5FEA86937
:10170000204008B1012070BD0020FCE710B5044660
:101710004148844202D04148844200D105E04FF460
:101720001671AFF2E81000F0AFFEA06910BD70B501
:1017300005460C463848854202D03848854200D1DB
:1017400005E040F26D21AFF20C2000F09DFE012C6F
:1017500005D0022C03D0042C01D0082C00D105E0C8
:1017600040F26E21AFF22C2000F08EFEE86920409E
:1017700008B1012070BD0020FCE770B504460D469D
:101780002548844202D02548844200D105E040F239
:101790008121AFF2582000F077FE012D01D0022DFB
:1017A00000D105E040F28221AFF2702000F06CFE23
:1017B000256270BD70B504460D4616461648844233
:1017C00002D01648844200D105E040F29721AFF2E2
:1017D000942000F059FE022D01D0012D00D105E02A
:1017E0004FF42671AFF2AC2000F04EFE0EB1012E88
:1017F00000D105E040F29921AFF2C02000F044FE94
:10180000012E03D1606A2843606204E0606A03210C
:10181000A9430840606270BD00800840000003409A
:101820000146F748814201D100207047F5488142C6
:1018300001D10120F9E7F448814201D10220F4E707
:101840004FF0FF30F1E70146202008600820886152
:1018500000BF086800F008000028FAD02020886146
:10186000486800F0F8007047016801F0200109B1F4
:1018700020218161102101600821816170470246A9
:10188000106800F0200008B120209061C8B290607C
:101890000820906100BF106800F008000028FAD00E
:1018A000506800F0F80070470346012A02D1042076
:1018B000186001E0042098610820986100BF186852
:1018C00000F008000028FAD098680870586800F006
:1018D000F800704770B504460E46C948844205D0EA
:1018E000C848844202D0C848844200D103E0E021C5
:1018F000C6A000F0C9FDC248844205D10E20FEF703
:101900007FFEB0FBF6F510E0BE48844205D12620EC
:10191000FEF776FEB0FBF6F507E0BB48844204D143
:101920003420FEF76DFEB0FBF6F5680820612069F3
:10193000281A606170BD70B504460D46B0488442F7
:1019400005D0B048844202D0AF48844200D104E0C0
:101950004FF48471ADA000F097FDA948844208D1EE
:1019600001218020FEF769FE02210E20FEF708FE0D
:1019700018E0A448844208D10121C804FEF75DFEA6
:1019800002212620FEF7FCFD0CE09F48844208D18E
:1019900001218806FEF751FE02213420FEF7F0FDFA
:1019A00000E070BD29462046FFF794FF6420A06147
:1019B00000BFF6E710B504469148844205D091482F
:1019C000844202D09048844200D104E04FF49C71DC
:1019D0008EA000F059FD4020A0618948844204D1C6
:1019E00000218020FEF729FE10E08648844205D1C0
:1019F00000214FF40020FEF720FE07E082488442D9
:101A000004D100214FF08060FEF717FE10BD70B5C5
:101A100004460D460DB1012D00D104E040F25911EC
:101A20007AA000F031FD7648844205D075488442A2
:101A300002D07548844200D104E04FF4AD7173A028
:101A400000F022FD012D02D14020206001E0402065
:101A5000A06170BD70B504460D46A5B168488442CA
:101A600003D10A2000F08CFC21E06648844203D1B7
:101A70000B2000F085FC1AE06348844217D10C204B
:101A800000F07EFC13E05E48844203D10A2000F09F
:101A900082FC0CE05B48844203D10B2000F07BFC0D
:101AA00005E05948844202D10C2000F074FC70BD5E
:101AB0002DE9F04105462846FFF7B2FE064662488A
:101AC00050F83640686800F0F8076762F82F03D1D5
:101AD0000820A861BDE8F0815B4800EBC6004068C3
:101AE000002857D1202F48D006DC082F0BD0102F0C
:101AF0000AD0182F4CD115E0282F14D0302F3DD00C
:101B0000382F45D13FE000BF2020A861606838B180
:101B1000A06828B120684000A8600820A86100E003
:101B200012E036E000BFD4E9021088420BD26068B0
:101B300048B1E1686068405CA860E068401CE06013
:101B40000820A86118E000BF01203F4901EBC60151
:101B50004860606958B1206948B1A06830B16068D8
:101B600020B1202028600C20A86105E031E0606AE7
:101B700040F480606062B6E00BE000BF606A40F451
:101B800000706062A0E0606A40F48070606200BF34
:101B90009AE0B5E02C4800EBC60040680128F8D177
:101BA000402F24D006DC082F0BD0102F0AD0382F5E
:101BB0007DD183E0482F7CD0502F4CD0582F76D148
:101BC00063E000BF2020A861206950B1606940B186
:101BD00000BF0121206801EB4000A8600820A86137
:101BE00004E0606A40F4806060627CE087E0D4E9F1
:101BF0000501401E814229D20420286028E000000F
:101C000000C0014000C0054000000A402E2E5C4C80
:101C100069627261726965735C4C43503137363862
:101C20005F5374645065726970685F447269766569
:101C3000725C736F757263655C6C70633137787852
:101C40005F6932632E630000600000100420A86109
:101C50000820A86153E0206950B1D4E905108842FA
:101C600006D2A868A26921698854A069401CA061B5
:101C7000D4E90501401E814202D20420286001E01F
:101C80000420A8610820A86139E0206950B1D4E996
:101C90000510884206D2A868A26921698854A06903
:101CA000401CA061606A40F4806060621BE00AE052
:101CB000FFE7606A40F40070606205E0606A40F42B
:101CC0008070606200BF00BFD4E90710884209D26B
:101CD0000020E060202028600C20A861206A401CC1
:101CE00020620BE000BF00212846FFF7B3FE284624
:101CF000FFF7BAFD0120F74941F8260000BF00BFF9
:101D000000BFE7E62DE9F04104462046FFF788FDD5
:101D10008046F14850F83850606800F0F806AE612F
:101D2000F82E03D10820A061BDE8F08106F007007D
:101D3000002868D1F0100C38142864D2DFE800F0D5
:101D40000F631063152816292C4763485A63636391
:101D50006363630A042020600820A0615FE000BF85
:101D6000042020600820A06159E000BFD5E90410DC
:101D7000884208D2E86830B1A0686A69E968885486
:101D80006869401C6861042020600820A06146E06A
:101D900000BF0820A06142E000212046FFF75AFE64
:101DA0000820A06147030FE0206800F0080020B180
:101DB00001212046FFF74EFE07E07F1E27B9A869E4
:101DC00040F48060A8611FE0EEE700BF27E000BF9D
:101DD000D5E90110884208D2286830B1A96828687E
:101DE000405CA060A868401CA86004202060082017
:101DF000A06114E0042020600820A061A86940F4DC
:101E00008060A86100E000BF00212046FFF722FEAD
:101E10002C20A0610120B14941F8280000BF00BF7B
:101E200000BF81E72DE9F84306460C461746D4F873
:101E30000480D4F810900020E060A0616062002F60
:101E40007ED1206200BFD4F80480D4F81090002026
:101E5000E060A06100253046FFF7F5FC0546082D3F
:101E60000BD0102D09D0206A401C2062D4E9071045
:101E7000884201D96562ABE0E5E7A068A0B360687D
:101E800090B320784006010E3046FFF7F8FC054677
:101E9000182D0BD0206A401C2062D4E9071088421C
:101EA00003D945F40070606292E0CCE718E098F83E
:101EB00000103046FFF7E3FC0546282D0BD0206AC2
:101EC000401C2062D4E90710884203D945F4007011
:101ED00060627DE0B7E708F10108E068401CE0605F
:101EE000D4E902108842E2D3A068B8B16068A8B112
:101EF000606998B1206988B13046FFF7A4FC0546B7
:101F0000082D0BD0102D09D0206A401C2062D4E986
:101F10000710884201D965625AE094E76069002899
:101F200050D0206900284DD02078012202EB4000DB
:101F3000C1B23046FFF7A3FC0546402D0DD000E0AE
:101F40004BE0206A401C2062D4E90710884203D984
:101F500045F4007060623BE075E72FE0D4E90501CD
:101F6000401E814211D2012269463046FFF79CFC97
:101F70000546502D1BD0206A401C2062D4E9071072
:101F8000884201D9656223E05DE700226946304658
:101F9000FFF78AFC0546582D09D0206A401C2062B4
:101FA000D4E90710884201D9656211E04BE79DF83A
:101FB000000009F8010BA069401CA061D4E90510DC
:101FC0008842CBD33046FFF74FFC0120BDE8F883B1
:101FD0003046FFF749FC0020F8E7012F1AD13046C0
:101FE000FFF71EFCC0B200903B489DF8001040F87F
:101FF0003140002038499DF8002001EBC2014860C3
:102000000820B0612020306001213046FFF722FD1A
:102010000120DBE70020D9E72DE9F84F04460D4603
:102020001646D5F80090D5F80CA00020A86068618D
:10203000A861002E6FD1042020602820A06100201C
:102040000090834675E0206800F00800002867D003
:1020500000200090606800F0F80707F007000028F3
:102060005AD1F8100C38142856D2DFE800F00F557A
:102070001055152716282B39553A4B55555555559A
:10208000550A042020600820A06148E000BF042019
:1020900020600820A06142E000BFD5E9041088421A
:1020A00007D2E86828B1A0680AF8010B6869401CEB
:1020B0006861042020600820A06130E000BF082093
:1020C000A0612CE00820A061012000904FF0000BDF
:1020D00025E000007800001060000010840000106F
:1020E00000BFD5E90110884207D2286828B119F845
:1020F000010BA060A868401CA86004202060082094
:10210000A0610CE0042020600820A0610120009064
:102110004FF0000B03E01AE00820A06112E008E095
:10212000009830B158460BF1010BB0F5803F00D953
:1021300000E088E70420A06147F48060A8610120E6
:10214000BDE8F88F0420A061AF610020F8E7012E00
:1021500015D12046FFF764FB8046934840F838507D
:102160000120914901EBC80148600420206028202B
:10217000A06101212046FFF76DFC0120E0E700206F
:10218000DEE770B504460D468848844205D088488D
:10219000844202D08748844200D105E040F2A14148
:1021A000AFF2985000F070F92878002803DB287807
:1021B000032800DC05E040F2A241AFF2B05000F08D
:1021C00063F9A87810B1A878012800D105E040F2A1
:1021D000A341AFF2C85000F057F9A878012800D108
:1021E00000E00020697840EA4100C6B2287830B1AA
:1021F00001280AD002280ED0032818D111E0E66089
:10220000E87800F0FE00206311E02662E87800F034
:10221000FE0060630BE06662E87800F0FE00A063F9
:1022200005E0A662E87800F0FE00E06300BF00BFB2
:1022300070BD70B504460D4616465C48844205D014
:102240005B48844202D05B48844200D105E040F202
:10225000D541AFF2486000F017F9022D00D000BF61
:1022600000BF0EB1012E00D105E040F2D741AFF220
:10227000646000F009F9012E03D1E0692843E061B0
:1022800004E0E0690721A9430840E06170BD70B532
:1022900004460D464548844205D04548844202D054
:1022A0004448844200D105E040F2F141AFF2A4601D
:1022B00000F0EAF80DB1012D00D105E040F2F24145
:1022C000AFF2B86000F0E0F8012D08D1E06940F00D
:1022D0000100E061042020602820A06105E0E069A1
:1022E00000F00600E0612C20A06100203249086067
:1022F00070BD10B504462D48844205D02C48844258
:1023000002D02C48844200D105E040F21451AFF2D3
:10231000047000F0B9F8E06AC0B210BD30B50346F1
:10232000002008249C61DC6A234D2D684C55224C0A
:102330002468641C204D2C602C462468944200D3F1
:10234000012030BD70B505462846FFF769FA0446FE
:102350001A4850F824600020184941F824003046FB
:1023600070BD70B505462846FFF75AFA0446144872
:1023700050F824600020124941F82400304670BD16
:1023800000F01F02012191404209920002F1E02277
:10239000C2F80011704700F01F0201219140094A64
:1023A000430942F8231070476000001000C001404C
:1023B00000C0054000000A40040000107800001032
:1023C0008400001080E100E01CB500208DF80000C2
:1023D0001B208DF8010001208DF8020000208DF8EF
:1023E00003008DF804006846FDF772FF1C208DF88D
:1023F00001006846FDF76CFF02208DF800000A20FE
:102400008DF801006846FDF763FF0B208DF8010091
:102410006846FDF75DFF1CBD00F0E4FEFFF7D4FF4A
:1024200000F059F901F0A2FE01F012FA01F042FEAB
:1024300001F073FE01214FF04020FEF711FD012154
:102440001248FEF70DFD1EE001F0E6FD10480068A1
:10245000012804D101F0E2F900200D4908600D487F
:102460000068012804D101F099FA002009490860A8
:1024700009480068012806D101F066FC01F08AF9DC
:10248000002005490860DFE700BFFEE7008000404C
:10249000500000105400001058000010000200BF4F
:1024A000011EA0F10100FBD1704710B501224FF4CD
:1024B00070010020FEF7DCF901224FF06071104638
:1024C000FEF7D6F94FF470010020FEF7DBF94FF06C
:1024D00060710120FEF7D6F910BD10B5222003F07F
:1024E0000BFE10BD10B504464FF48000FE49C861D4
:1024F00080108861204603F041F84FF40000FA494B
:10250000C861012003F0EEFD4FF40000F649886138
:102510004010886110BDF5480088704730B501460D
:1025200001F01F04C1F34513CA0AE50205EB431588
:102530001544A8B230BD70B504460D46EB4800887E
:1025400048F68911884207D1A1B24E2003F0F4FD6C
:10255000A9B24F2003F0F0FDA1B2202003F0ECFD62
:10256000A9B2212003F0E8FD70BD70B504460D4608
:1025700029462046FFF7DFFFFFF7AFFF03F000FD1E
:10258000064603F0FDFC0646304670BD70B50546B4
:10259000002400210846FFF7CEFFFFF79EFF00BF93
:1025A00003E02846FFF79EFF641CB4F5963FF8D37E
:1025B00070BD10B5CD48008848F68911884205D114
:1025C00046F23001112003F0B7FD04E041F2300182
:1025D000032003F0B1FD00210846FFF7ACFFFFF731
:1025E0007CFF45F25550FFF77DFF4AF6AA20FFF722
:1025F00079FF00210846FFF79EFF10BD2DE9F0414D
:10260000BA48008848F68911884204D041F2300166
:10261000032003F091FD002500210846FFF78BFF02
:10262000FFF75BFF002405E02846FFF75BFF681C0F
:1026300085B2641CB4F5963FF6D30025AB480088FC
:1026400049F22031884209D0A8480088491D8842B3
:1026500004D0A6480088C91C884219D1002413E080
:1026600000260EE021463046FFF77FFF0746FFF7C2
:1026700055FF29466A1C95B2884201D0BDE8F08119
:10268000761CF02EEED3641CB4F5A07FE8D320E0D6
:102690009648008844F23151884205D0934800881A
:1026A00048F68911884214D100240FE000260AE080
:1026B00021463046FFF759FF29466A1C95B28842E9
:1026C00000D0DBE7761CF02EF2D3641CB4F5A07FBB
:1026D000ECD300BFD2E770B5FFF7E7FE40F2DC5065
:1026E000FFF7DCFE0024204603F006FD03F048FC63
:1026F000054600BF7D480580008844F2315188427C
:1027000021D07A48008847F2837188421BD07748ED
:10271000008849F22031884215D074480088491D4C
:10272000884210D071480088C91C88420BD06F487D
:102730000088B0F5134F06D06C48008848F6891120
:10274000884200D070BD6948008849F2253188422E
:1027500004D066480088C91C88427DD11021E7203A
:1027600003F0EAFC0121002003F0E6FC4FF4807145
:10277000012003F0E1FC4FF4E061022003F0DCFCF7
:1027800041F22801032003F0D7FC0021042003F0CC
:10279000D3FC40F20721082003F0CEFC00210920E1
:1027A00003F0CAFC00210A2003F0C6FC01210C2022
:1027B00003F0C2FC00210D2003F0BEFC00210F201D
:1027C00003F0BAFC0021102003F0B6FC0721112011
:1027D00003F0B2FC0021122003F0AEFC0021132014
:1027E00003F0AAFC0F20FFF759FE41F29051102090
:1027F00003F0A2FC40F22721112003F09DFC0F20E2
:10280000FFF74CFE9C21122003F096FC0F20FFF7EF
:1028100045FE4FF4C851132003F08EFC23212920DC
:1028200003F08AFC0E212B2003F086FC0F20FFF71B
:1028300035FE0021202003F07FFC0021212003F041
:102840007BFC0F20FFF72AFE0721302003F074FCE9
:1028500040F20771312000E08BE003F06DFC0621AF
:10286000322003F069FC40F20471352003F064FC6F
:1028700041F60471362003F05FFC0421372003F099
:102880005BFC0021382003F057FC40F20671392030
:1028900003F052FC40F201713C2003F04DFC0F218B
:1028A0003D2003F049FC0F20FFF7F8FD00215020E8
:1028B00003F042FCEF21512003F03EFC00215220A6
:1028C00003F03AFC40F23F11532003F035FC4FF483
:1028D0002741602003F030FC0121612003F02CFC33
:1028E00000216A2004E0000000C009205C00001004
:1028F00003F022FC0021802003F01EFC0021812037
:1029000003F01AFC0021822003F016FC0021832032
:1029100003F012FC0021842003F00EFC002185202E
:1029200003F00AFC1021902003F006FC0021922005
:1029300003F002FC0321932003F0FEFB4FF48871A7
:10294000952003F0F9FB0021972003F0F5FB00210F
:10295000982003F0F1FB40F23311072003F0ECFB69
:102960000021202003F0E8FB0021212003F0E4FBFC
:1029700012E3FC48008849F22031884204D0F9482B
:102980000088B0F5134F7DD10021084603F0D4FB39
:102990000021012003F0D0FB4FF4E061022003F09E
:1029A000CBFB41F21801032003F0C6FB00210420F9
:1029B00003F0C2FB40F20221082003F0BDFB00211E
:1029C000092003F0B9FB00210A2003F0B5FB012127
:1029D0000C2003F0B1FB00210D2003F0ADFB002122
:1029E0000F2003F0A9FB0F20FFF758FD40F2011163
:1029F000072003F0A1FB0F20FFF750FD4FF4865195
:102A0000102003F099FB0721112003F095FB4FF4F0
:102A10008871122003F090FB4FF43061132003F013
:102A20008BFB0021292003F087FB44F210012B20AF
:102A300003F082FB0021502003F07EFBEF215120A8
:102A400003F07AFB0021522003F076FB40F23F11A5
:102A5000532003F071FB4FF42741602003F06CFB1F
:102A60000121612003F068FB00216A2003F064FB70
:102A70000021802003F060FB0021812003F05CFB3B
:102A8000002100E02DE0822003F056FB002183208E
:102A900003F052FB0021842003F04EFB002185202F
:102AA00003F04AFB1021902003F046FB0021922006
:102AB00003F042FB0121932003F03EFB4FF48871A9
:102AC000952003F039FB0021972003F035FB00210E
:102AD000982003F031FB40F27311072003F02CFB28
:102AE0005AE2A048008844F2315188427DD1012148
:102AF000002003F021FB4FF4C561102003F01CFB04
:102B00000621122003F018FB40F63221132003F0B7
:102B100013FB4021112003F00FFB5021152003F07F
:102B20000BFB1621122003F007FB0F20FFF7B6FC6A
:102B300045F26061102003F0FFFA0F20FFF7AEFCB2
:102B400042F64E21132003F0F7FA0021012003F092
:102B5000F3FA4FF44071022003F0EEFA41F2300133
:102B6000032003F0E9FA40F20221082003F0E4FA1E
:102B700000210A2003F0E0FA0021302003F0DCFA03
:102B800040F20241312003F0D7FA4FF48371322032
:102B900003F0D2FA4FF4E061332003F0CDFA4FF4A2
:102BA0008271342003F0C8FA40F20131352003F07D
:102BB000C3FA40F20771362003F0BEFA40F2053145
:102BC000372003F0B9FA4FF40271382003F0B4FA59
:102BD00040F60B71392003F0AFFA0F20FFF75EFCCF
:102BE0000221412003F0A8FA00E037E04FF427412A
:102BF000602003F0A1FA0121612003F09DFA40F268
:102C00001911902003F098FA4FF48571922003F087
:102C100093FA0421932003F08FFA4FF48071A020DF
:102C200003F08AFA0F20FFF739FC0F20FFF736FC7C
:102C30000F20FFF733FC0F20FFF730FC40F2331179
:102C4000072003F079FA0F20FFF728FC0021A020CD
:102C500003F072FA1420FFF721FC9DE1414800883F
:102C600047F2837188427CD10121FF2003F064FA8E
:102C70000821F32003F060FA4FF48071012003F083
:102C80005BFA4FF4E061022003F056FA41F23001A2
:102C9000032003F051FA40F20231082003F04CFA0D
:102CA00040F20721082003F047FA0021092003F031
:102CB00043FA00210A2003F03FFA0021102003F01C
:102CC0003BFA0521112003F037FA0021122003F00E
:102CD00033FA0021132003F02FFA1420FFF7DEFB54
:102CE00041F2B021102003F027FA1420FFF7D6FBA1
:102CF0000721112003F020FA1420FFF7CFFB8B21CE
:102D0000122003F019FA1420FFF7C8FB4FF4B85152
:102D1000132003F011FA1420FFF7C0FB2221292011
:102D200003F00AFA0021302003F006FA40F207719E
:102D3000312003F001FA40F20551322003F0FCF992
:102D400040F20711352003F0F7F90821362003F08F
:102D5000F3F90021372003F0EFF940F20221382087
:102D600002E040E05C00001003F0E6F94FF48371EC
:102D7000392003F0E1F940F202213C2003F0DCF9B4
:102D80004FF481613D2003F0D7F91420FFF786FB53
:102D90000021502003F0D0F9EF21512003F0CCF9AD
:102DA0000021522003F0C8F940F23F11532003F0F4
:102DB000C3F94FF42741602003F0BEF901216120DF
:102DC00003F0BAF93321902003F0B6F90B212B2040
:102DD00003F0B2F940F23311072003F0ADF91420EB
:102DE000FFF75CFBD8E07148008848F689118842FB
:102DF000F8D12121072003F09FF90121002003F0E1
:102E00009BF92321072003F097F90021102003F0FC
:102E100093F940F6B830FFF741FB3321072003F068
:102E20008BF946F27001112003F086F94FF4C0616E
:102E3000022003F081F940F60401032003F07CF93D
:102E400000210C2003F078F940F60C010D2003F06E
:102E500073F94FF424510E2003F06EF9B8211E20AF
:102E600003F06AF942F63F31012003F065F90021D1
:102E7000102003F061F90021052003F05DF9002125
:102E8000062003F059F94EF61C71162003F054F990
:102E90000321172003F050F940F23321072003F0FB
:102EA0004BF9C0210B2003F047F900210F2003F05C
:102EB00043F90021412003F03FF90021422003F0B3
:102EC0003BF90021482003F037F940F23F11492037
:102ED00003F032F900214A2003F02EF900214B20A3
:102EE00003F02AF94FF46F41442003F025F9002143
:102EF000452003F021F940F23F11462003F01CF970
:102F000040F20771302003F017F94FF401713120BE
:102F100003F012F94FF40171322003F00DF940F281
:102F20000251332003F008F940F20751342003F036
:102F300003F94FF40171352003F0FEF84FF40171ED
:102F4000362003F0F9F840F20251372003F0F4F88C
:102F500040F202313A2003F0EFF840F202313B2018
:102F600003F0EAF80021232003F0E6F800212420F2
:102F700003F0E2F84FF40041252003F0DDF80021D2
:102F80004F2003F0D9F800214E2003F0D5F8FFF7C9
:102F900010FB1F20FFF7FAFAFFF70BFBFFF72EFBE2
:102FA0001F20FFF7F3FA00BFFFF7CCBB5C00001057
:102FB0002DE9F84F05460E46174698460095B1464E
:102FC00000242CE0A7F12000244901EB001010F8A8
:102FD00004A049460098FFF7AEFA09F101001FFA74
:102FE00080F9FFF77AFA4FF0000B13E00AF0800047
:102FF00020B11FFA88F0FFF775FA03E00A9988B24A
:10300000FFF770FA4FEA4A604FEA106A0BF10100CD
:1030100000F0FF0BBBF1080FE8DB601CC4B2102C02
:10302000D0DBBDE8F88F2DE9F84305460E4614467F
:103030001F46DDF820800BE0CDF8008022783B466B
:1030400031462846FFF7B4FF641C05F1080085B23D
:1030500020780028F0D1BDE8F8830000DC6D000086
:103060002DE9F05F81460D4617469846DDE90AAB2B
:10307000BAF1760F14D12C460EE021464846FFF7F0
:103080005AFAFFF72AFA002603E05846FFF72AFA11
:10309000761C4645F9D9641CE819A042EDD214E02B
:1030A0002C460EE021464846FFF745FAFFF715FA91
:1030B000002603E05846FFF715FA761CBE42F9D900
:1030C000641C05EB0800A042ECD2BDE8F09F2DE99E
:1030D000FC5F0746884691461D46DDE90E4BDDE95B
:1030E0000C6ABAF1010F08D168202B464A464146C6
:1030F000CDE9000B3846FFF7B3FF682033464A4658
:103100004146CDE900043846FFF7AAFF762007EBD9
:103110000901CDE90004881B33462A464146FFF7E2
:103120009FFF6820CDE9000408EB0500811B3346B2
:103130004A463846FFF794FF762033462A464146F2
:10314000CDE900043846FFF78BFFBDE8FC9F000087
:1031500011B581B00120EB49086101A80860002287
:10316000E948FEF72DF9C4B22CB1E649C1F808D000
:103170009DF800001CBD0020FCE700B589B00020D0
:103180008DF81C0002208DF81E0000208DF81F0015
:103190008DF8200007208DF81D0007A8FDF798F88E
:1031A00008208DF81D0007A8FDF792F809208DF87A
:1031B0001D0007A8FDF78CF8082001900020029060
:1031C000039004900590D148069001A8FEF762F89C
:1031D00001A9CD48FDF7FDFF0121CB48FEF765F8B9
:1031E00009B000BD1CB500208DF802008DF8040068
:1031F0008DF8030013208DF8010000208DF80000E9
:103200006846FDF765F800224FF400211046FDF7EF
:10321000A5FA0122D1040020FDF7D3FA01224021B2
:103220000020FDF79BFA40210020FDF7ABFAFFF7E5
:10323000A4FF012240210020FDF790FA4021002048
:10324000FDF7AAFA8020FFF783FF0122402100202A
:10325000FDF784FA40210020FDF794FA1CBD2DE90A
:10326000F04196B0B5E000243EE00122402100206C
:10327000FDF774FA40210020FDF78EFAD020FFF709
:1032800067FF0020FFF764FF4006000D11A921F839
:1032900014009020FFF75CFF11A931F8141041EAE7
:1032A000E00011A921F814000020FFF751FF4006AB
:1032B000000D0CA921F814000020FFF749FF0CA90C
:1032C00031F8141041EAE0000CA921F81400802024
:1032D000FFF73EFF012240210020FDF73FFA402189
:1032E0000020FDF74FFA641C0A2CBED34FF6FF7383
:1032F0001D460026002700210022002032E00DF1AB
:10330000440C3CF810C09C4503D20DF1440C3CF831
:1033100010300DF1440C3CF810C0B44503D90DF148
:10332000440C3CF810600DF1440C3CF810C06144B2
:103330000DF1300C3CF810C0AC4503D20DF1300C4F
:103340003CF810500DF1300C3CF810C0BC4503D9CE
:103350000DF1300C3CF810700DF1300C3CF810C041
:103360006244401C0A28CAD3A1EB030CACEB060153
:10337000A2EB050CACEB0702C1F3CF0CDFF8908198
:10338000A8F800C0C2F3CF0CDFF88881A8F800C00D
:103390005F48028860A107A800F0B8FF4046028895
:1033A0005FA102A800F0B2FF1F2047F6FF7307AA33
:1033B0004FF4917100900020FFF735FE1F2047F673
:1033C000FF7302AA4FF4917100907820FFF72BFE53
:1033D00000BF0020FDF7EAF900F4002000283FF4C8
:1033E00042AF16B0BDE8F0812DE9F0418AB000246B
:1033F0003BE0012240210020FDF7B0F940210020F0
:10340000FDF7CAF9D020FFF7A3FE0020FFF7A0FECA
:103410004006000D05A921F814009020FFF798FE42
:1034200005A931F8141041EAE00005A921F81400BB
:103430000020FFF78DFE4006000D2DF8140000203F
:10344000FFF786FE3DF8141041EAE0002DF8140065
:103450008020FFF77DFE012240210020FDF77EF94C
:1034600040210020FDF78EF9641C0A2CC1D34FF6D1
:10347000FF731D460026002700210022002028E0BF
:103480000DF1140C3CF810C09C4503D20DF1140C46
:103490003CF810300DF1140C3CF810C0B44503D9C1
:1034A0000DF1140C3CF810600DF1140C3CF810C038
:1034B00061443DF810C0AC4501D23DF810503DF8D4
:1034C00010C0BC4501D93DF810703DF810C06244F1
:1034D000401C0A28D4D3A1EB030CACEB0601A2EBF1
:1034E000050CACEB0702C1F3CF0CDFF82480A8F881
:1034F00000C0C2F3CF0CDFF81C80A8F800C00AB0EF
:10350000BDE8F0819000001000000340801A060022
:10351000080000100A000010583A202530346400DA
:10352000593A2025303464001FB513240EE04FF6BD
:10353000FF7001220023CDE90120009303900223B4
:1035400008229F212046FFF7C2FD0D34E12CEEDB5F
:103550001FBDFB480068052801D101207047F948CC
:103560000068052801D10220F8E70020F6E700B541
:1035700089B0F348F4A21021036805A800F0DAFE30
:10358000F048F1A21021036801A800F0D3FE4FF625
:10359000FF70002305AA194600900220FFF743FDA3
:1035A0004FF6FF70002301AA40F22F110090E42093
:1035B000FFF739FD09B000BD10B50122E3494FF412
:1035C0007F7000F00BFE0122E1494FF4826000F0B1
:1035D00005FEDE480078352803D0DD480078352820
:1035E00005D10020D6490860D649086017E0D748C1
:1035F000007818B90020D249086004E0D04AD2A16E
:10360000D24800F0B1FFD248007818B90020CD4967
:10361000086004E0CB4ACCA1CD4800F0A5FF10BD66
:103620002DE9F05FCB48006802F0E9FF8046CA4A06
:10363000CA4B03F04BF8064601F052FF04462246FF
:103640000B460020C64902F053FE824602F0A8FF56
:10365000C44908600868002801DB014600E04142D7
:10366000C04A1160BDE8F09FBA4800685A38C0F1FE
:103670005A00B8490860704710B5FCF785FD5A211B
:1036800090FBF1F201FB12002D30B2490860FCF70B
:103690007BFDCF2190FBF1F201FB12001030B2490B
:1036A0000860FCF771FD00F00100B04908700846A1
:1036B000007850B1FCF768FD0A2190FBF1F201FBA4
:1036C0001200A030AA4908600AE0FCF75DFD0A215B
:1036D00090FBF1F201FB1200C0F1A000A4490860C8
:1036E0000020A249087010BD7FB505460C460F2C7E
:1036F0004FDDA04800682044E0284ADA012D24D19B
:1037000000200122CDE90002029003909A4803684C
:10371000984802689948016899480068FFF7D7FC03
:10372000974804604FF6FF7001220023CDE9012085
:1037300000930390904803688E4802688F480168A0
:103740008F480068FFF7C3FC23E000200122CDE989
:103750000002029003908B4803688B4802688B48F4
:1037600001688B480068FFF7B2FC894804604FF697
:10377000FF7001220023CDE90120009303908148CE
:103780000368814802688148016881480068FFF742
:103790009EFC7FBD10B575480078F8B17549086882
:1037A00000EBD071764A126802EB6101794A126827
:1037B000914206DA72480168491C0120FFF794FF24
:1037C0002BE07448006872490968884225DA6C4821
:1037D0000068411E0120FFF787FF1EE06A49086864
:1037E00000EBD0716A4A126802EB6101694A126803
:1037F000914206DA66480168491C0220FFF774FF0F
:103800000BE06448006862490968884205DA60484C
:103810000068411E0220FFF767FF10BD10B5484841
:1038200049A10268494800F071FD464846A1026876
:10383000474800F06BFD022245494FF4826000F0DA
:103840009FFC022241494FF47F7000F099FC10BDAB
:103850001FB5002050490860FFF7AEFEFFF7DEFFFE
:1038600000200122CDE9000202904FF4A073F02263
:1038700001460390FFF72BFC4FF6FF700122002357
:10388000CDE90120009303904FF4A0730F22002193
:103890000846FFF71CFC4FF6FF7001220023CDE91C
:1038A0000120009303904FF4A0730F220021E02029
:1038B000FFF70DFC0820304908601E202D490860E4
:1038C00069202F49086005202C49086008202D49EF
:1038D00008601E202C49086069202D49086040F2CC
:1038E00033102A4908604FF6FF7001220023CDE90A
:1038F000012000930390204803681E4802681F4877
:1039000001681F480068FFF7E2FB4FF6FF700122D5
:103910000023CDE90120009303901A4803681A4858
:1039200002681A4801681A480068FFF7D0FBFFF7E1
:103930001EFEFFF7F9FDFFF79FFEFFF771FE1FBDAB
:103940002400001038000010256400004C00001016
:103950004E0000101800001012E7FAA146DF913F58
:103960000000F03F1C0000100C00001020000010B0
:103970001000001034000010300000102C00001067
:103980002800001044000010480000104000001003
:103990003C00001014000010500000102DE9F04F02
:1039A00087B000200122CDE90002029005231A46CB
:1039B0000390FE480168FE480068FFF788FBFD4859
:1039C000007800287DD0FC490968FC4A12688818F4
:1039D00002F015FECDE90401F948006802F00FFE7F
:1039E0008246F84AF84B02F071FE064602F004FBEC
:1039F000CDE9000101F006FD80468946EB480068EC
:103A000002F0FDFD044642464B4603F085F8CDE941
:103A10000201DDE9042302F01DFE39D8EB480068FD
:103A2000EB4909680844E2490968884230DDE0480A
:103A30000068401DE5490968884229DD0020DD490C
:103A40000870DF48006802F0DAFD8046DD4ADE4B90
:103A500002F03CFE064602F0CFFACDE9020101F089
:103A6000D1FC04460D46D148006802F0C8FD22464C
:103A70002B46CDE9040102F07FFB824602F090FD67
:103A8000CA490860D14801680120FFF72DFEFFE018
:103A9000CB48006802F0B3FD0646CA4ACA4B02F0A2
:103AA00015FE804602F0A8FA824601F0ABFCCDE993
:103AB0000201BE48006802F0A2FD0446DDE90223CF
:103AC00000E037E003F028F800221346CDE90401B6
:103AD00002F0FAFE21D2BA48006802F090FD0646D4
:103AE000B84AB94B02F0F2FD804602F085FACDE902
:103AF000020101F087FC82468B46AC48006802F068
:103B00007EFD044652465B4603F006F8CDE904010B
:103B100002F046FDA5490860BAE0AE480068401CC6
:103B2000AC4908600120AC490860FFF7A5FDFFF72C
:103B30001EFDADE0A9490968481F02F060FD8246FC
:103B40008B469F48006802F05AFD80469D4A9E4B76
:103B500002F0BCFD064602F04FFA044601F052FCAA
:103B6000CDE902019148006802F049FDCDE900016C
:103B7000DDE9022302F000FB52465B46CDE9040179
:103B800002F0A2FE35D896480068964909680844B4
:103B90008749096888422CDD85480068401D9049A6
:103BA0000968884225DD0120824908708448006840
:103BB00002F025FD0646834A834B02F087FDCDE9DE
:103BC000040102F019FA82468B467848006802F038
:103BD00016FD044652465B4602F09EFF804602F008
:103BE000DFFC724908607E4801680220FFF77CFD17
:103BF0004EE07348006802F002FD724A724BCDE954
:103C0000040102F063FD064602F0F6F904460D4693
:103C10006648006802F0F3FC804622462B4602F01C
:103C2000ABFA82460022704B02F014FD21D26448A8
:103C3000006802F0E4FC8246624A634B02F046FDF3
:103C4000064602F0D9F9044601F0DCFB80468946BD
:103C50005648006802F0D3FC42464B46CDE90201CB
:103C600002F08AFACDE9040102F09AFC4F4908609B
:103C70000EE001204F4908705C480068401C5B4919
:103C80000860012054490860FFF7F6FCFFF76FFC5D
:103C900057480068B0BB4A48006802F0B0FC804654
:103CA000484A494B02F012FD064601F019FC044651
:103CB0000022134602F008FE11D23D480068DA28BF
:103CC00005DA3B480068401C3949086018E038486C
:103CD0000068401E36490860FFF7C6FC10E0344813
:103CE0000068102805DD32480068401E3049086031
:103CF00006E02F480068401C2D490860FFF7B4FC1F
:103D0000FFF78EFC3A480068401E39490860274892
:103D10000068992803D025480068A22801D1FFF740
:103D200003FC4FF6FF7001220023CDE90120009330
:103D3000039005231A461D4801681D480068FFF7D7
:103D4000C6F907B0BDE8F08F2DE9F04F8FB01948E4
:103D50000078002876D11A4800685A2874DA134986
:103D6000096840F23312501A02F049FC064600225C
:103D70004FF0804301F018FC04460D4610480068DF
:103D800002F03DFC0F4A104BCDE9000102F09EFC11
:103D9000824602F031F9804689460449096840F2BA
:103DA0003312501A02F02BFC424623E010000010A0
:103DB0000C000010200000102C000010300000103B
:103DC0001800001012E7FAA146DF913F280000100A
:103DD00034000010380000105000001040000010A7
:103DE0003C0000104800001000B073402400001098
:103DF0001C0000104B46CDE9020102F079FA06469C
:103E000000224FF0804301F0CFFB22462B46CDE944
:103E1000040102F081FECDE9060102F03DF9CDE991
:103E20000A019248006802F0EAFBCDE90801DDE9E9
:103E30000A2302F0A1F9CDE90C0102F0B1FB8C4993
:103E40000860E6E04CE0FFE78A49096840F2331277
:103E5000501A02F0D4FB064600224FF0804301F0D6
:103E6000A3FBCDE904018448006802F0C8FB824648
:103E7000824A834B02F02AFC804602F0BDF8CDE96D
:103E800000017C49096840F23312501A02F0B7FB76
:103E90000646DDE9002302F02BFA00224FF08043B2
:103EA000CDE9020101F080FB0446DDE9042302F0C4
:103EB00033FECDE9060102F0EFF8CDE90A016B48C7
:103EC000006802F09CFBCDE90801DDE90A2302F05D
:103ED00023FECDE90C0102F063FB6549086098E020
:103EE000654800685A284ADA62490968C1F10E003B
:103EF00002F085FB044600224FF0804301F054FBA2
:103F0000CDE906015C48006802F079FB06465B4A91
:103F10005B4B02F0DBFBCDE9000102F06DF882465D
:103F20008B4654490968C1F10E0002F068FB524605
:103F30005B46CDE9020102F0DBF9044600224FF0B6
:103F4000804301F031FBCDE90401DDE9062302F0F5
:103F5000E3FD804602F0A0F8CDE90A01434800687D
:103F600002F04DFBCDE90801DDE90A2302F004F976
:103F7000CDE90C0102F014FB3D49086049E03D49E0
:103F80000968C1F10E0002F03AFB044600224FF02E
:103F9000804301F009FBCDE906013748006802F0D3
:103FA0002EFB0646354A364B02F090FBCDE9000168
:103FB00002F022F804460D462E490968C1F10E00B0
:103FC00002F01DFB804622462B4602F091F90022AA
:103FD0004FF08043CDE9020101F0E6FACDE904019A
:103FE000DDE9062302F098FD824602F055F8CDE99E
:103FF0000A011E48006802F002FBCDE90801DDE974
:104000000A2302F089FDCDE90C0102F0C9FA184932
:1040100008600FB0BDE8F08F08B5FFF79AFA0128E5
:1040200003D0FFF796FA02281FD1FFF792FA012872
:1040300009D100204FF6FF7312A298210090502062
:10404000FEF7F1FF08E000204FF6FF7310A2982161
:1040500000905020FEF7E7FF00214FF04020FCF7D2
:10406000FFFE00210D48FCF7FBFE08BD0C00001010
:1040700014000010100000101800001012E7FAA140
:1040800046DF913F6C6566742077696E73000000AF
:1040900072696768742077696E7300000080004061
:1040A00010B501201749086000214FF04020FCF7AF
:1040B000BBFD10BD0EB501200121814042099200D7
:1040C00002F1E022C2F8001100BF4FF6E8504FF0B5
:1040D0004021C86000208DF8000001208DF801000B
:1040E00000208DF8020001208DF8030003208DF8D8
:1040F00004000120029069464FF04020FCF7EEFEDC
:104100000EBD00005400001010B5012014490860D5
:1041100001211448FCF788FD10BD0EB502200121D5
:1041200081404209920002F1E022C2F8001100BF72
:104130000D480C49C86001208DF800008DF8010081
:1041400000208DF8020001208DF8030003208DF877
:1041500004000120029069460248FCF7BFFE0EBD34
:10416000580000100080004098AB020010B52949AB
:104170002948FDF7E0FB01212748FDF748FC10BD69
:104180002DE9F0438FB005460E461746502000EB50
:1041900025282812A5EB002900240BE024B909F0FA
:1041A000FF000DF8040004E01EB1601E305C0DF845
:1041B0000400641C781C8442F0DBCDF81080CDF83C
:1041C00014D006970020099001200B90002204A92A
:1041D0001148FDF727FE0FB0BDE8F083F0B58DB0B4
:1041E00004460D461646502000EB24272012A4EB6F
:1041F0000020C0B20190029701A803900120049012
:10420000069507960990002202A90348FDF70AFEC9
:104210000DB0F0BD20A1070000C0014053EA020C20
:1042200000F069802DE9F04B4FF00006002B1FBF16
:10423000B3FA83F503FA05F424FA05F65E4012BFDB
:104240001643B2FA82F502FA05F4C5F120051EBF45
:1042500022FA05FC44EA0C04203556EA044C4FEAE5
:10426000144418BF641C4FF000084FF0000990423E
:1042700071EB030C39D3002919BFB1FA81F701FAA8
:1042800007F6B0FA80F700FA07F6C7F120071EBF5D
:1042900020FA07FC46EA0C062037B6FBF4FCA7EB35
:1042A0000507103F07F01F0BCBF120060CFA0BFBA4
:1042B0002CFA06F644BFB3460026202FA4BF5E4664
:1042C0004FF0000B5BEA060C08BF4FF0010B19EB37
:1042D0000B09ABFB027C48EB0608C01B06FB02CCBB
:1042E0000BFB03CC71EB0C01C1E70B4602464146C8
:1042F0004846BDE8F08B13B54FF000004FF00001C9
:10430000AFF30080BDE81C40704700000FB41CB53F
:10431000074B06AA7B4469460090059800F073FAA3
:104320000020694600F082FA1CBC5DF814FB000016
:10433000150500000FB41CB50C0007AA009001D0B1
:104340002044401E074B7B4469460190069800F0CC
:104350005AFA002C03D06946002000F067FA1CBC12
:104360005DF814FBED04000070B504468569006833
:10437000C10601D5302600E02026C00707D070BD59
:10438000D4E9012130469047206A401C20626D1E0E
:10439000F6D570BD70B5044685690078C00707D1B1
:1043A00070BDD4E9012120209047206A401C206282
:1043B0006D1EF6D570BD00002DE9F04106460024C3
:1043C00010687529314616A510D0AFF3008000287B
:1043D00002DA404213A507E031688A0701D512A529
:1043E00002E0490704D511A5012401E0AFF30080E4
:1043F00000210A2206F1240709E0B0FBF2FCB0FB21
:10440000F2F302FB1C00303078541846491C002897
:10441000F3D123462A463046BDE8F04100F094B976
:10442000000000002D0000002B0000002000000014
:104430002DE9F05F894604464FF0000ADFF824B109
:10444000FB44C0F820A02046E168884700287DD0C2
:10445000252806D0D4E901219047206A401C20621B
:10446000F1E700255F462046E16888472028064698
:1044700007DB312E05D2B81910F8200C08B105431E
:10448000F1E7A80701D525F00405C4F81CA0002712
:10449000C4F818A02A2E09D0304600F0ABFF38B37C
:1044A00004EB8708303EC8F8186019E059F8041B7F
:1044B000204604EB87029161E1688847012F064698
:1044C00018D1E069002820DA25F020051DE0D8F891
:1044D000180000EB800006EB40003038C8F81800E8
:1044E0002046E1688847064600F084FF0028EED1A8
:1044F000012F0AD02E2E08D12046E16888477F1C64
:104500000646022F45F02005C4DBA069002803DA27
:10451000404245F00105A061E80701D025F01005F3
:10452000A6B1A6F14100192802D8203645F400654D
:104530004A463146204625604D46FBF701FE60B1F4
:10454000012807D0ED1D25F0070000E007E000F18D
:10455000080978E705F1040975E730467AE7206A2B
:10456000BDE8F09F882F00000FB400B58DB010A9F2
:10457000099000910B904FF0FF300A9000200C90B2
:10458000064878440690064878446A4607900F9992
:1045900009A800F06DF90DB05DF814FB0B030000E5
:1045A000230300002DE9FF5F1D464FF0FF3B9146BE
:1045B0004FF000085F46D5E90146A96901987F1CC4
:1045C0008847296A824688470028F6D1BAF1FF3F1A
:1045D0000CD0002E24F4C06419DD600614D5BAF1A5
:1045E0002B0F09D0BAF12D0F0ED103E0584604B0BD
:1045F000BDE8F09F44F48064A96901987F1C884756
:10460000761E8246002E02DDBAF1300F03D0B9F1DA
:10461000000F26D032E0A969761E01987F1C44F471
:1046200000748847002E824605DDBAF1780F06D067
:10463000BAF1580F03D0B9F1000F10D01EE0B9F154
:10464000000F02D0B9F1100F18D1A969761E019898
:104650007F1C24F4007488478246102002E0082062
:1046600000E00A20814609E0A96908FB0908761ED6
:1046700001987F1C44F4007488478246002E05DDB3
:104680004946504600F0DFF80028EDDAE969019864
:104690008847A00502D46FF00100A8E7E00725D104
:1046A000600613D5600502D5C8F1000000E0404661
:1046B00029680A1D2A600968220501D5087015E0DD
:1046C000220701D5088011E008600FE02868011D6D
:1046D00029600068210502D580F8008006E02107E6
:1046E00002D5A0F8008001E0C0F8008038467EE7DF
:1046F0000B4910B5A1F17C020A4CC2E937123721EF
:1047000006E000EB104342F82130074B00FB03406A
:104710000B1EA1F10101F4DC10BD0120E8E700004F
:1047200024010010E119D666CD0D010070477047D5
:10473000704710B500F0CCF8006810BD10B5044605
:1047400000F0C6F8046010BD2DE9F0470D4699460B
:104750009246044600F124080168880604D5E06901
:1047600021F01001216000E00120A84201DD471B7B
:1047700000E00027A1697A1902EB0900081AA0617C
:104780002078C00602D42046FFF7EEFD002608E0A0
:10479000D4E901211AF806009047206A401C761CD3
:1047A00020624E45F4DB2078C0060AD52046FFF78C
:1047B000DBFD06E0D4E9012130209047206A401C4F
:1047C0002062381EA7F10107F4DC07E0D4E90121DB
:1047D00018F805009047206A401C2062281EA5F1A9
:1047E0000105F3DC2046FFF7D5FD2078000602D551
:1047F0000220BDE8F0870120FBE7000001694A1CA8
:1048000002610878704700B58FB0CDE90131002111
:10481000059105497944CDE9031011466846FFF733
:1048200007FE0FB000BD0000E5FFFFFF0A6802F8B9
:10483000010B0A607047D1E900239A4202D2531C4F
:104840000B60107070473A2800D2303820F02002F8
:10485000412A01D3A2F13700884201D34FF0FF3043
:1048600070470000026811441378016018467047D1
:10487000D1600549794451610449794411620021AC
:104880001161114600F032B8EDFFFFFF5B00000040
:10489000426842B1016811F8013B23B1521EC0E9E0
:1048A0000012184670470121C160881E7047426897
:1048B0005AB1C368016843B983688B4205D0491E69
:1048C000521CC0E90012002070474FF0FF307047C3
:1048D000004870478C01001010B5044600F0EAF95A
:1048E0000068005D00F0010010BD00002DE9F34FED
:1048F0004FF0000A0C4656468DB001200C9001F195
:104900000C000B9062690B9801219047051E2DD079
:10491000252D2CD0216A8847C0B162690B980121EE
:104920009047216A88470028F7D16269411E0B9899
:10493000904700E0761CA1690D988847216A884756
:104940000028F7D1E1690D988847DBE7A1690D9848
:104950008847A842074601D1761CD3E7E1690D9844
:1049600088477F1C02D1BAF1000F6FD06CE16269F9
:104970000B9800273D46394690472A2804D16269A2
:104980000B98012190470125DFF8D08262690B98CE
:1049900001219047A0F130010A290AD24745E5DC00
:1049A00007EB870100EB4107303FDFD445F01005EE
:1049B000ECE7E90601D46FF000476C280AD04C28D8
:1049C00014D0682815D06A280DD074281CD07A28F5
:1049D0001AD01DE062690B98012190476C2802D023
:1049E00045F0040514E045F002050DE045F0200512
:1049F0000AE062690B9801219047682802D045F0CF
:104A0000080505E045F4006562690B9801219047AF
:104A1000C4E9015765283DD019DC58287AD00CDC50
:104A2000452837D004DC252826D041289ED131E006
:104A300046282FD0472899D12CE05B2877D06128D1
:104A400028D063287CD0642823D15AE0F7E06F286F
:104A500048D008DC66281DD067281BD0692821D0E3
:104A60006E2816D127E0702845D0732868D07528A5
:104A700047D078280DD14DE0A1690D9888472528A9
:104A800005463FF469AFE1690D9888476D1C3FF416
:104A90006AAFD9E00D9923466A466FF00100AFF383
:104AA0000080C6E045F0400023464FF00002606001
:104AB000A80736D43EE0E8077FF447AF2068011D21
:104AC00021600068290501D506701BE7290701D57B
:104AD000068017E7A90703D5F117C0E9006111E7C0
:104AE00006600FE745F0400023464FF00802606083
:104AF000A80716D41EE040F60E0125EA010060600A
:104B000016E045F0400023464FF00A026060A80717
:104B100007D40FE045F040006060A80708D52346A1
:104B200010220D996FF00100AFF3008081E007E0E3
:104B3000102223460D996FF00100FFF733FD78E056
:104B40004FF0000963284F46C8464B46CB4602D07B
:104B50005B2807D039E02079C00601D40120A0608D
:104B6000012732E06269D4F80CB00B98012190471C
:104B70005E2807D14FF0010949466269D4F80CB0AC
:104B80000B989047216939B900210A4603AB43F8D5
:104B90002120491C0829FADBD8B3216949B308F15F
:104BA000010862690B98012190475D28F4D1B9F1A1
:104BB000000F09D0002003A951F82020D24341F86A
:104BC0002020401C0828F7DB03AB2069002820794F
:104BD0004FEA40701ED05B462246CDF80080CDE9FA
:104BE00001970D9900286FF0010020DAAFF30080E3
:104BF0001FE0C11703AA00EBD1614B1121F01F0187
:104C000002EB8302411A13680120884003431360BA
:104C1000C7E719E00D99224600286FF001000097C0
:104C200002DAAFF3008004E0AFF3008001E0AFF3FD
:104C3000008000280ADA401C06D10C9820B14FF001
:104C4000FF300FB0BDE8F08F5046FAE7E90701D119
:104C50000AF1010A064400200C9053E6CCCCCC0C9F
:104C6000004870478C0100107546FFF7F9FFAE460B
:104C700005006946534620F00700854618B020B568
:104C8000FBF7AAFABDE820404FF000064FF00007FE
:104C90004FF000084FF0000B21F00701AC46ACE8E4
:104CA000C009ACE8C009ACE8C009ACE8C0098D4651
:104CB0007047000010B500F00FF8001D10BD00BFD8
:104CC0008D14000010B50446AFF300802046BDE807
:104CD0001040FBF752BA000000487047AC010010CA
:104CE00001491820ABBEFEE7260002004FF0013C50
:104CF00050F8042B51F8043B9A4221D1A2EB0C034B
:104D0000934313EACC1317D150F8042B51F8043B0A
:104D10009A4215D1A2EB0C03934313EACC130BD1A7
:104D200050F8042B51F8043B9A4209D1A2EB0C0332
:104D3000934313EACC13DBD04FF00000704700BF61
:104D4000D01A01BAB1FA81F101F0180122FA01F08A
:104D5000CB40C1F12001DBB2C0B2C01A2CFA01F382
:104D6000D11A914311EAC311E6D17047490050EAC4
:104D7000C12018BF04204A0D18BF40F0010040F2C6
:104D8000FF72B2EB515F08BF40F00200012808BF7C
:104D9000052070472DE9F74F144694B00021C4E96F
:104DA00002111599079121F00045C9498D4206DC91
:104DB0001599C4E9000117B00020BDE8F08FC5497E
:104DC000DFF814A3A9423CDD0799C44E0029C44F63
:104DD000C44A1599534619DD01F09EFE554506D08B
:104DE000C14AC24B01F098FEC4E900010AE04FF04D
:104DF000D352BE4B01F090FE32463B4601F08CFE92
:104E0000C4E9000117B00120BDE8F08F01F0B4F94A
:104E1000554506D0B44AB54B01F0AEF9C4E90001DE
:104E20000AE04FF0D352B14B01F0A6F932463B46AF
:104E300001F0A2F9C4E9000117B04FF0FF30BDE85E
:104E4000F08FAB49A942159978DB21F000418346E8
:104E50008846A84AA84B01F039FC0022A74B01F074
:104E60008BF901F09DFB099001F0C9FB06460F4646
:104E70009C4A534601F02AFC43465A4601F05AFD2B
:104E800080468A46984A994B3046394601F01EFCC6
:104E90002A0D01250B924246534601F04BFD032D8E
:104EA000C4E9000139D00B98C1F30A51401A05EB4F
:104EB00045111139814230DA9148C346784400EBFC
:104EC0000510CDF80CA00C90D0E9002330463946EF
:104ED00001F0FCFB02460B460491069058460399EC
:104EE00001F01AFE80468A4602460B465846039950
:104EF00001F012FE049B069A01F00EFE83460C9808
:104F000003913946D0E90223304601F0DFFB5A46CF
:104F1000039B01F001FE6D1CBDE707980028A2BFAE
:104F2000099817B0BDE8F08F616881F000416160B9
:104F3000099817B04042BDE8F08FFFE78446159806
:104F4000C1F31301C0F30A50A0F2F5304FEA601824
:104F500000F01F06C6F12000139000200690079075
:104F600041F4801E05206D4676B1664A08EB0001CB
:104F70007A4452F8213002EB8101B3404A68139918
:104F800022FA01F1194305E05F4908EB0002794478
:104F900051F82210A1FB0E27A1FB0C131A449A42D0
:104FA00034BF0123002303EB070A05EB8003D3E999
:104FB00001B70F448F4234BF0121002193448B4439
:104FC00011B1934502D903E0934501D2012100E0DC
:104FD0000021C3E901B7514445F82010011EA0F19A
:104FE0000100C1DC0298059F00F10050800F129073
:104FF0000298DDE90356800001F001FB8346284654
:105000000D9101F013FB6FF01D0201F0A1FECDE93F
:105010000E01304601F00AFB6FF03D0201F098FEF0
:1050200080468A46384601F001FB6FF05D0201F0D0
:105030008FFE074642465346119101F09DF8DDE987
:105040000E2301F099F85A460D9B01F095F80025C2
:105050000E465A4628460D9B01F05EFDDDE90E2303
:1050600001F05AFD4246534601F056FD3A46119B67
:1050700001F060FCDFF898A0244A534601F026FBBB
:1050800007468846234A244B3146284601F01EFB3A
:105090003A46434601F070F8074688464FF0A8426A
:1050A00053463146284601F011FB3A46434601F08B
:1050B00063F8159A12F0004F04D0129A81F0004163
:1050C00052421292C4E90001129817B0BDE8F08F65
:1050D000FB21E93F7CD90240FB21F93F7370032E8D
:1050E0008A19A33B000040543163621A61B4D03D79
:1050F000FB21394183C8C96D305FE43F0000E03FC8
:10510000E02500005C2500003E250000182D4454D9
:10511000FB21F93D3326A611460B113C2DE9FF4D2D
:1051200021F0004807460C46B8F1795F08DA01F033
:1051300037FA002801BF0020324904B0BDE8F08DE5
:105140003A4623461046194601F0C0FA0546024683
:105150002D480E460B460621784400F05DF82A469D
:10516000334601F0B3FADDE9022382468B46384626
:10517000214601F0ABFA04460F4652465B462846EC
:10518000314601F0A3FA22463B4601F0C5FC074632
:105190008A464FF0FF322846314601F0D9FD1B4ABE
:1051A00090450ADA3A46534601F0B6FC04B00022B4
:1051B000BDE8F04D134B01F0BDBB154A4245A8BFF9
:1051C000A8F500154FF00004B8BF124D22462B463B
:1051D00001F0A2FC0646884622462B4600200949DB
:1051E00001F09AFC04460D463A4653463046414685
:1051F00001F092FC04B022462B46BDE8F04D01F0D0
:1052000099BB00000000F03F0C2300003333D33F74
:105210000000E93F0000D23F2DE9F0414F1E00EBB6
:10522000C7010446D1E9000115461E4637F00602C3
:105230000DD02A46334601F049FA7F1E04EBC7031E
:10524000D3E9002300F098FF37F00602F1D1022FD6
:1052500025D0042F13D0062F18BFBDE8F0812A46B1
:10526000334601F033FAD4E90A2300F085FF2A46D9
:10527000334601F02BFAD4E9082300F07DFF2A46DB
:10528000334601F023FAD4E9062300F075FF2A46DD
:10529000334601F01BFAD4E9042300F06DFF2A46DF
:1052A000334601F013FAD4E9022300F065FF2A46E1
:1052B000334601F00BFAD4E90023BDE8F04100F0D9
:1052C0005BBF00002DE9FF4D054621F0004084B092
:1052D0000C46B0F1795F0BDA2846FFF747FD04284A
:1052E00008BF00F07FF8284608B02146BDE8F08DE1
:1052F0002A460B46104601F0E9F906460F462A46B3
:10530000234601F0E3F9804626488A4632463B466A
:1053100005217844FFF780FF83461098029160B31F
:10532000214A224B4046514601F0D0F9CDE9000117
:105330005A4640465146029B01F0C8F982468846CB
:10534000DDE906014FF0FF3201F002FD524643460F
:1053500001F0E2FB32463B4601F0B8F9DDE90623F5
:1053600001F0DAFBDDE9002301F0D6FB08B02A46A4
:105370002346BDE8F04D01F0DDBA0B465A463046F3
:10538000394601F0A3F9084A084B00F0F5FE424601
:10539000534601F09BF908B02A462346BDE8F04D7C
:1053A00000F0EABE52220000495555555555C5BF7B
:1053B000002213461046014900F09ABF0000F03F5A
:1053C000012201F0C5BC00F0D7BE002213461046F2
:1053D000114600F08DBF40F2013200204FF0E04155
:1053E00001F0B6BC024A0020110701F0B1BC000078
:1053F00001FDFFFF30380A2801D20120704700204C
:10540000704700002DE9F041C1F30A52A2F2FF36C5
:105410002F4A304B0D460446142E2FDA002E12DA96
:1054200000F0AAFE0022134601F04EFA4CD2002DE5
:10543000BCBF4FF00045002446DB55EA040018BF0E
:10544000254D19D140E0DFF894C02CFA06F705EAA3
:10545000070C5CEA040C08BFBDE8F08100F08CFE8C
:105460000022134601F030FA2ED2002D03DD4FF456
:105470008010F0400544BD43002425E0332EC8BF12
:10548000BDE8F081A6F1140C4FF0FF3727FA0CF7B6
:105490003C4208BFBDE8F08101F04CFA00221346FF
:1054A00001F012FA10D2002D0DDD142E08BF6D1C74
:1054B00009D0C6F13400012101FA00F02044A042D5
:1054C00038BF6D1C0446BC4329462046BDE8F08128
:1054D0009C7500883CE4377E0000F03FFFFF0F0022
:1054E00000B5244B21F0004287B09A42DCBF002275
:1054F000134629DD204B9A4208D140B94FF00100F4
:10550000FFF71CF9FFF761FF07B000BD03DBFFF7F2
:1055100057FF07B000BD02AAFFF73CFC10F00301E3
:1055200004BF0DF1080C9CE80F000DD001200129EB
:105530000ED0022914D00DF1080C00909CE80F0049
:10554000FFF7C0FE07B000BDFFF7E8FD07B000BDE4
:105550000DF1080C00909CE80F00FFF7B3FE05E08A
:105560000DF1080C9CE80F00FFF7D8FD07B081F0A3
:10557000004100BDFB21E93F0000F07F0949096CB3
:1055800041F0FF01074A11644FF0807191634900B7
:10559000D163114648654FF400019163D163011254
:1055A0005165704700C009202DE9F04D1D460C469D
:1055B00098B0174621F0004123F00043002814BFA3
:1055C0004FF0010C4FF0000C0CEB440CFE4A0CEBBE
:1055D00002064FEA620C66452BD33E0018BF012637
:1055E00006EB45061644F94A964222D3F84A53EA96
:1055F000070C02D0944205D148B918B000201146DA
:10560000BDE8F08D002808BF4FF0000C01D04FF02E
:10561000010C0CEB440212F5001F0AD8002F14BF36
:105620004FF0010C4FF0000C0CEB450212F5001F7F
:1056300007D918B03A462B462146BDE8F04DFFF792
:10564000C2BE0022DFF88CA3002CB8BF534526DA77
:10565000DFF884C36345A8BF022220DADFF870C3F5
:105660009C451CDCDFF874C30CEB235CBCF1140F0D
:1056700008DDCCF1340627FA06FC0CFA06F6BE4229
:105680000DD108E05FB9CCF1140623FA06FC0CFA40
:1056900006F69E4203D10CF00102C2F1020251EA69
:1056A000000C19D1002D17DA002C18BF022A01D0E6
:1056B000012A07D00220FFF741F818B0BDE8F04DED
:1056C000FFF776BE0220FFF739F8FFF771FE18B03A
:1056D00081F00041BDE8F08DB7F1000C6CD153456D
:1056E00025D104F1804212F5801201BF002800206C
:1056F000B74918B008BFBDE8F08DB548884207DC4F
:10570000002DA1BF6046294618B0BDE8F08D07E026
:10571000281E05DA80F0004118B06046BDE8F08D23
:10572000AF497944D1E9000118B0BDE8F08DDFF848
:10573000A0C2634525D1002D1FDA19B1514512D100
:10574000D8B909E0002840F0EC82A24A214618B0FE
:1057500062F31E01BDE8F08D0020214618B060F311
:105760001E01BDE8F08D08DA18B02346BDE8F04D03
:1057700002460020614600F0BBBD18B02146BDE8DE
:10578000F08D514518DAB5F1804F0DD0A5F1005CD0
:10579000BCF1FF5C10D1B4F1000C0DDB18B0614618
:1057A000BDE8F04D00F078BC234618B00246BDE8D5
:1057B000F04D194600F08ABF060024F0004C3BD1A2
:1057C000D9B1514533D1002C06DD002DA1BF0020F9
:1057D000514618B0BDE8F08D002C01DD002D1BDB1B
:1057E000002C13DA002D11DB012A4FF0000014BF4A
:1057F00078497C4918B0BDE8F08D022A18BF002C0A
:105800000AD0012A08D1002C06DA0AE0002CB8BF21
:10581000002D11DA012A04D0002018B00146BDE89D
:10582000F08D18B000204FF00041BDE8F08DA1F1DF
:105830004050B0F17F601AD0012000EBE47050EAD4
:10584000020421D0624C521E4FF0000B104304BFE3
:105850004FF0000B644C654883427CDD644A654828
:1058600093421FDD884217DB002D25DB37E0002C3B
:1058700000DA4AB1022A0CBF01204FF0FF3018B005
:10588000BDE8F04D00F0BBBE0120FEF757FF18B099
:10589000BDE8F04DFFF799BD4D4A8A4202DC002D6C
:1058A0000ADC1CE0814202DA002D18DA04E0484BE1
:1058B000994220DD002D12DD0220FEF73FFFFFF7A9
:1058C0008AFD05460E46002253465846214600F002
:1058D000FDFE18B066F31E012846BDE8F08D0220DB
:1058E000FEF72CFFFFF77EFD0A46214618B062F353
:1058F0001E01BDE8F08D00223046614601F00CF932
:1059000080460E466FF0010201F022FA4FF0553248
:10591000394B01F00FF84246334600F0D7FE002223
:10592000364B01F007F88246424633460491104652
:10593000194600F0CBFE5246049B00F0C7FE8A4693
:1059400000904FF0C0422E4B4046314600F0BEFE64
:105950002C4A2B4B00E027E0CDE906015146009888
:1059600000F0B4FE82460191274A284B404631465A
:1059700000F0ACFE5246019B01F0CEF882460B4689
:1059800002460591DDE9060100F0F6FBDDE906239C
:1059900000268846304601F0BFF85246059B00F0CD
:1059A000C9FF024600F07EB90020B1F5801F07DA7A
:1059B00035223046614601F0CBF906466FF03400DF
:1059C00000EB215024E00000FFFF1F00FFFF0F004D
:1059D0000000F03F0000F07F0000404301FCFFFFAB
:1059E000721D00000000F0FF0000F0BF0000E04169
:1059F0000000F043FFFFEF3F5555D53F0000E03F6B
:105A00004715F73FFE822B6544DF5DF80BAE543E31
:105A1000A0F2FF300190C1F3130040F07F6141F02C
:105A200040510291FE498842D8BF002004DDFD4963
:105A30008142C8BF012001DD0D9008E000200D90DB
:105A40000198401C01900298A0F5801002900299E4
:105A5000F54878440B910D9900EBC100D0E9002383
:105A60000F9330460A920B9901F056F8CDE90601E2
:105A7000DDE90A2130460F9B00F07EFB02460B4613
:105A80000020EA4900F034FC059102460B460090E4
:105A9000DDE9060100F01AFE1490E5488A464FF051
:105AA000000878440299006812904FF0005040EAD4
:105AB00061010D980F9B01EB804000F500210991D9
:105AC0000A9A129801F028F832460B9B00F032FF38
:105AD0004246534600F0FAFD0646029140465146C2
